{
  "_format": "hh-sol-artifact-1",
  "contractName": "Feedback",
  "sourceName": "contracts/Feedback.sol",
  "abi": [
    {
      "inputs": [],
      "stateMutability": "nonpayable",
      "type": "constructor"
    },
    {
      "inputs": [
        {
          "internalType": "string",
          "name": "_message",
          "type": "string"
        }
      ],
      "name": "addFeedback",
      "outputs": [],
      "stateMutability": "nonpayable",
      "type": "function"
    },
    {
      "inputs": [
        {
          "internalType": "uint256",
          "name": "",
          "type": "uint256"
        }
      ],
      "name": "feedbacks",
      "outputs": [
        {
          "internalType": "address",
          "name": "sender",
          "type": "address"
        },
        {
          "internalType": "string",
          "name": "message",
          "type": "string"
        },
        {
          "internalType": "uint256",
          "name": "timestamp",
          "type": "uint256"
        }
      ],
      "stateMutability": "view",
      "type": "function"
    },
    {
      "inputs": [],
      "name": "getAllFeedback",
      "outputs": [
        {
          "components": [
            {
              "internalType": "address",
              "name": "sender",
              "type": "address"
            },
            {
              "internalType": "string",
              "name": "message",
              "type": "string"
            },
            {
              "internalType": "uint256",
              "name": "timestamp",
              "type": "uint256"
            }
          ],
          "internalType": "struct Feedback.IFeedback[]",
          "name": "",
          "type": "tuple[]"
        }
      ],
      "stateMutability": "view",
      "type": "function"
    }
  ],
  "bytecode": "0x60806040523480156200001157600080fd5b506200005d6040518060400160405280601881526020017f54686973206973206120736d61727420636f6e747261637400000000000000008152506200006360201b620003b31760201c565b620001ed565b62000103816040516024016200007a9190620001c9565b6040516020818303038152906040527f41304fac000000000000000000000000000000000000000000000000000000007bffffffffffffffffffffffffffffffffffffffffffffffffffffffff19166020820180517bffffffffffffffffffffffffffffffffffffffffffffffffffffffff83818316178352505050506200010660201b60201c565b50565b60008151905060006a636f6e736f6c652e6c6f679050602083016000808483855afa5050505050565b600081519050919050565b600082825260208201905092915050565b60005b838110156200016b5780820151818401526020810190506200014e565b60008484015250505050565b6000601f19601f8301169050919050565b600062000195826200012f565b620001a181856200013a565b9350620001b38185602086016200014b565b620001be8162000177565b840191505092915050565b60006020820190508181036000830152620001e5818462000188565b905092915050565b610c5a80620001fd6000396000f3fe608060405234801561001057600080fd5b50600436106100415760003560e01c80632bb8b0dc1461004657806354d7c36614610078578063d3b6866414610094575b600080fd5b610060600480360381019061005b91906104bf565b6100b2565b60405161006f939291906105cc565b60405180910390f35b610092600480360381019061008d919061073f565b610194565b005b61009c610262565b6040516100a99190610902565b60405180910390f35b600081815481106100c257600080fd5b90600052602060002090600302016000915090508060000160009054906101000a900473ffffffffffffffffffffffffffffffffffffffff169080600101805461010b90610953565b80601f016020809104026020016040519081016040528092919081815260200182805461013790610953565b80156101845780601f1061015957610100808354040283529160200191610184565b820191906000526020600020905b81548152906001019060200180831161016757829003601f168201915b5050505050908060020154905083565b600060405180606001604052803373ffffffffffffffffffffffffffffffffffffffff168152602001838152602001428152509050600081908060018154018082558091505060019003906000526020600020906003020160009091909190915060008201518160000160006101000a81548173ffffffffffffffffffffffffffffffffffffffff021916908373ffffffffffffffffffffffffffffffffffffffff16021790555060208201518160010190816102519190610b30565b506040820151816002015550505050565b60606000805480602002602001604051908101604052809291908181526020016000905b828210156103aa57838290600052602060002090600302016040518060600160405290816000820160009054906101000a900473ffffffffffffffffffffffffffffffffffffffff1673ffffffffffffffffffffffffffffffffffffffff1673ffffffffffffffffffffffffffffffffffffffff16815260200160018201805461030f90610953565b80601f016020809104026020016040519081016040528092919081815260200182805461033b90610953565b80156103885780601f1061035d57610100808354040283529160200191610388565b820191906000526020600020905b81548152906001019060200180831161036b57829003601f168201915b5050505050815260200160028201548152505081526020019060010190610286565b50505050905090565b610449816040516024016103c79190610c02565b6040516020818303038152906040527f41304fac000000000000000000000000000000000000000000000000000000007bffffffffffffffffffffffffffffffffffffffffffffffffffffffff19166020820180517bffffffffffffffffffffffffffffffffffffffffffffffffffffffff838183161783525050505061044c565b50565b60008151905060006a636f6e736f6c652e6c6f679050602083016000808483855afa5050505050565b6000604051905090565b600080fd5b600080fd5b6000819050919050565b61049c81610489565b81146104a757600080fd5b50565b6000813590506104b981610493565b92915050565b6000602082840312156104d5576104d461047f565b5b60006104e3848285016104aa565b91505092915050565b600073ffffffffffffffffffffffffffffffffffffffff82169050919050565b6000610517826104ec565b9050919050565b6105278161050c565b82525050565b600081519050919050565b600082825260208201905092915050565b60005b8381101561056757808201518184015260208101905061054c565b60008484015250505050565b6000601f19601f8301169050919050565b600061058f8261052d565b6105998185610538565b93506105a9818560208601610549565b6105b281610573565b840191505092915050565b6105c681610489565b82525050565b60006060820190506105e1600083018661051e565b81810360208301526105f38185610584565b905061060260408301846105bd565b949350505050565b600080fd5b600080fd5b7f4e487b7100000000000000000000000000000000000000000000000000000000600052604160045260246000fd5b61064c82610573565b810181811067ffffffffffffffff8211171561066b5761066a610614565b5b80604052505050565b600061067e610475565b905061068a8282610643565b919050565b600067ffffffffffffffff8211156106aa576106a9610614565b5b6106b382610573565b9050602081019050919050565b82818337600083830152505050565b60006106e26106dd8461068f565b610674565b9050828152602081018484840111156106fe576106fd61060f565b5b6107098482856106c0565b509392505050565b600082601f8301126107265761072561060a565b5b81356107368482602086016106cf565b91505092915050565b6000602082840312156107555761075461047f565b5b600082013567ffffffffffffffff81111561077357610772610484565b5b61077f84828501610711565b91505092915050565b600081519050919050565b600082825260208201905092915050565b6000819050602082019050919050565b6107bd8161050c565b82525050565b600082825260208201905092915050565b60006107df8261052d565b6107e981856107c3565b93506107f9818560208601610549565b61080281610573565b840191505092915050565b61081681610489565b82525050565b600060608301600083015161083460008601826107b4565b506020830151848203602086015261084c82826107d4565b9150506040830151610861604086018261080d565b508091505092915050565b6000610878838361081c565b905092915050565b6000602082019050919050565b600061089882610788565b6108a28185610793565b9350836020820285016108b4856107a4565b8060005b858110156108f057848403895281516108d1858261086c565b94506108dc83610880565b925060208a019950506001810190506108b8565b50829750879550505050505092915050565b6000602082019050818103600083015261091c818461088d565b905092915050565b7f4e487b7100000000000000000000000000000000000000000000000000000000600052602260045260246000fd5b6000600282049050600182168061096b57607f821691505b60208210810361097e5761097d610924565b5b50919050565b60008190508160005260206000209050919050565b60006020601f8301049050919050565b600082821b905092915050565b6000600883026109e67fffffffffffffffffffffffffffffffffffffffffffffffffffffffffffffffff826109a9565b6109f086836109a9565b95508019841693508086168417925050509392505050565b6000819050919050565b6000610a2d610a28610a2384610489565b610a08565b610489565b9050919050565b6000819050919050565b610a4783610a12565b610a5b610a5382610a34565b8484546109b6565b825550505050565b600090565b610a70610a63565b610a7b818484610a3e565b505050565b5b81811015610a9f57610a94600082610a68565b600181019050610a81565b5050565b601f821115610ae457610ab581610984565b610abe84610999565b81016020851015610acd578190505b610ae1610ad985610999565b830182610a80565b50505b505050565b600082821c905092915050565b6000610b0760001984600802610ae9565b1980831691505092915050565b6000610b208383610af6565b9150826002028217905092915050565b610b398261052d565b67ffffffffffffffff811115610b5257610b51610614565b5b610b5c8254610953565b610b67828285610aa3565b600060209050601f831160018114610b9a5760008415610b88578287015190505b610b928582610b14565b865550610bfa565b601f198416610ba886610984565b60005b82811015610bd057848901518255600182019150602085019450602081019050610bab565b86831015610bed5784890151610be9601f891682610af6565b8355505b6001600288020188555050505b505050505050565b60006020820190508181036000830152610c1c8184610584565b90509291505056fea264697066735822122004f43f6f2b861ce198ef43bd25081a92524cc46f2c65789be181250a3cf5e5c364736f6c63430008110033",
  "linkReferences": {},
  "deployedLinkReferences": {}
}